{
  "contractName": "FourParkExt",
  "abi": [
    {
      "constant": true,
      "inputs": [
        {
          "name": "",
          "type": "uint256"
        }
      ],
      "name": "SecuredMap",
      "outputs": [
        {
          "name": "",
          "type": "uint8"
        }
      ],
      "payable": false,
      "stateMutability": "view",
      "type": "function"
    },
    {
      "constant": true,
      "inputs": [
        {
          "name": "",
          "type": "uint256"
        }
      ],
      "name": "FrozenMap",
      "outputs": [
        {
          "name": "",
          "type": "uint8"
        }
      ],
      "payable": false,
      "stateMutability": "view",
      "type": "function"
    },
    {
      "constant": false,
      "inputs": [
        {
          "name": "_tokenId",
          "type": "uint256"
        }
      ],
      "name": "freezeToken",
      "outputs": [
        {
          "name": "",
          "type": "bool"
        }
      ],
      "payable": false,
      "stateMutability": "nonpayable",
      "type": "function"
    },
    {
      "constant": false,
      "inputs": [
        {
          "name": "_tokenId",
          "type": "uint256"
        }
      ],
      "name": "unFreezeToken",
      "outputs": [
        {
          "name": "",
          "type": "bool"
        }
      ],
      "payable": false,
      "stateMutability": "nonpayable",
      "type": "function"
    },
    {
      "constant": true,
      "inputs": [
        {
          "name": "_tokenId",
          "type": "uint256"
        }
      ],
      "name": "frozenState",
      "outputs": [
        {
          "name": "",
          "type": "uint8"
        }
      ],
      "payable": false,
      "stateMutability": "view",
      "type": "function"
    },
    {
      "constant": false,
      "inputs": [
        {
          "name": "_tokenId",
          "type": "uint256"
        }
      ],
      "name": "secureToken",
      "outputs": [
        {
          "name": "",
          "type": "bool"
        }
      ],
      "payable": false,
      "stateMutability": "nonpayable",
      "type": "function"
    },
    {
      "constant": false,
      "inputs": [
        {
          "name": "_tokenId",
          "type": "uint256"
        }
      ],
      "name": "unsecureToken",
      "outputs": [
        {
          "name": "",
          "type": "bool"
        }
      ],
      "payable": false,
      "stateMutability": "nonpayable",
      "type": "function"
    },
    {
      "constant": true,
      "inputs": [
        {
          "name": "_tokenId",
          "type": "uint256"
        }
      ],
      "name": "getSecuredState",
      "outputs": [
        {
          "name": "",
          "type": "uint8"
        }
      ],
      "payable": false,
      "stateMutability": "view",
      "type": "function"
    }
  ],
  "bytecode": "0x608060405234801561001057600080fd5b5061064e806100206000396000f3fe608060405234801561001057600080fd5b50600436106100a5576000357c010000000000000000000000000000000000000000000000000000000090048063deef5bae11610078578063deef5bae146101cc578063f1d279ba1461021c578063f92de0bf1461026c578063fdbe5002146102bc576100a5565b806307551205146100aa57806321d2daa0146100f0578063b6854f9614610136578063bf230edb1461017c575b600080fd5b6100d6600480360360208110156100c057600080fd5b8101908080359060200190929190505050610302565b604051808215151515815260200191505060405180910390f35b61011c6004803603602081101561010657600080fd5b81019080803590602001909291905050506103c8565b604051808215151515815260200191505060405180910390f35b6101626004803603602081101561014c57600080fd5b8101908080359060200190929190505050610448565b604051808215151515815260200191505060405180910390f35b6101a86004803603602081101561019257600080fd5b81019080803590602001909291905050506104c8565b604051808260018111156101b857fe5b60ff16815260200191505060405180910390f35b6101f8600480360360208110156101e257600080fd5b81019080803590602001909291905050506104f2565b6040518082600181111561020857fe5b60ff16815260200191505060405180910390f35b6102486004803603602081101561023257600080fd5b810190808035906020019092919050505061051b565b6040518082600181111561025857fe5b60ff16815260200191505060405180910390f35b6102986004803603602081101561028257600080fd5b810190808035906020019092919050505061053b565b604051808260018111156102a857fe5b60ff16815260200191505060405180910390f35b6102e8600480360360208110156102d257600080fd5b810190808035906020019092919050505061055b565b604051808215151515815260200191505060405180910390f35b60008160018081111561031157fe5b6001600083815260200190815260200160002060009054906101000a900460ff16600181111561033d57fe5b1461034757600080fd5b60018081111561035357fe5b6001600085815260200190815260200160002060009054906101000a900460ff16600181111561037f57fe5b1461038957600080fd5b60006001600085815260200190815260200160002060006101000a81548160ff021916908360018111156103b957fe5b02179055506001915050919050565b60008060018111156103d657fe5b60008084815260200190815260200160002060009054906101000a900460ff16600181111561040157fe5b1461040b57600080fd5b600160008084815260200190815260200160002060006101000a81548160ff0219169083600181111561043a57fe5b021790555060019050919050565b600060018081111561045657fe5b60008084815260200190815260200160002060009054906101000a900460ff16600181111561048157fe5b1461048b57600080fd5b600080600084815260200190815260200160002060006101000a81548160ff021916908360018111156104ba57fe5b021790555060019050919050565b60006001600083815260200190815260200160002060009054906101000a900460ff169050919050565b600080600083815260200190815260200160002060009054906101000a900460ff169050919050565b60016020528060005260406000206000915054906101000a900460ff1681565b60006020528060005260406000206000915054906101000a900460ff1681565b6000816000600181111561056b57fe5b6001600083815260200190815260200160002060009054906101000a900460ff16600181111561059757fe5b146105a157600080fd5b600060018111156105ae57fe5b6001600085815260200190815260200160002060009054906101000a900460ff1660018111156105da57fe5b146105e457600080fd5b600180600085815260200190815260200160002060006101000a81548160ff0219169083600181111561061357fe5b0217905550600191505091905056fea165627a7a72305820017c4938a95dded75102ca72096c0c7c84496a67ab1d67cec48e01ad0c34520b0029",
  "source": "pragma solidity ^0.5.6;\n\n\ncontract FourParkExt {\n\n  enum FrozenState { Frozen, NotFrozen }\n  enum SecuredState { Secured, NotSecured }\n\n  // Frozen state array variable\n  mapping (uint256 => FrozenState) public FrozenMap;\n  mapping (uint256 => SecuredState) public SecuredMap;\n\n\n  /***********************************************\n\n  Frozen\n\n  ***********************************************/\n\n  // Modifier to require non-frozen state of token\n  modifier onlyNotFrozen(uint256 _tokenId) {\n    require(FrozenMap[_tokenId] == FrozenState.NotFrozen);\n    _;\n  }\n  \n  // Modifier to require frozen state of token\n  modifier onlyFrozen(uint256 _tokenId) {\n    require(FrozenMap[_tokenId] == FrozenState.Frozen);\n    _;\n  }\n\n  // Function to freeze token\n  function freezeToken(uint256 _tokenId)\n    public\n    returns (bool)\n  {\n    require(FrozenMap[_tokenId] == FrozenState.NotFrozen);\n    FrozenMap[_tokenId] = FrozenState.Frozen;\n    return true;\n  }\n\n  // Function to unFreezeToken\n  function unFreezeToken(uint256 _tokenId)\n    public\n    returns (bool)\n  {\n    require(FrozenMap[_tokenId] == FrozenState.Frozen);\n    FrozenMap[_tokenId] = FrozenState.NotFrozen;\n    return true;\n  }\n\n  // Function to query state of token, no gas\n  function frozenState(uint256 _tokenId) public view returns (FrozenState) {\n    return FrozenMap[_tokenId];\n  }\n\n\n\n  /***********************************************\n\n  Secured\n\n  ***********************************************/\n\n  // Modifier to require secured state of token\n  modifier onlySecured(uint256 _tokenId) {\n    require(SecuredMap[_tokenId] == SecuredState.Secured);\n    _;\n  }\n\n  // Modifier to require not secured state of token\n  modifier onlyNotSecured(uint256 _tokenId) {\n    require(SecuredMap[_tokenId] == SecuredState.NotSecured);\n    _;\n  }\n\n  /**********************************************/\n  \n  // Function to secure token\n  function secureToken(uint256 _tokenId)\n    public\n    onlyNotSecured(_tokenId)\n    returns (bool)\n  {\n    require(SecuredMap[_tokenId] == SecuredState.NotSecured);\n    SecuredMap[_tokenId] = SecuredState.Secured;\n    return true;\n  }\n\n  // Function to unsecure token\n  function unsecureToken(uint256 _tokenId)\n    public\n    onlySecured(_tokenId)\n    returns (bool)\n  {\n    require(SecuredMap[_tokenId] == SecuredState.Secured);\n    SecuredMap[_tokenId] = SecuredState.NotSecured;\n    return true;\n  }\n\n  // Function to query state of token, no gas\n  function getSecuredState(uint256 _tokenId) public view returns (SecuredState) {\n    return SecuredMap[_tokenId];\n  }\n\n}",
  "sourcePath": "/Users/superphly/dev/fp/contracts/contracts/FourParkExt.sol",
  "compiler": {
    "name": "solc",
    "version": "0.5.6+commit.b259423e.Emscripten.clang"
  },
  "schemaVersion": "3.0.5",
  "updatedAt": "2019-03-23T21:13:18.455Z",
  "devdoc": {
    "methods": {}
  },
  "userdoc": {
    "methods": {
      "secureToken(uint256)": {
        "notice": "*******************************************"
      }
    }
  }
}